{
  "contractName": "PharmaSupplyChain",
  "abi": [
    {
      "anonymous": false,
      "inputs": [
        {
          "indexed": false,
          "internalType": "string",
          "name": "productId",
          "type": "string"
        },
        {
          "indexed": false,
          "internalType": "string",
          "name": "name",
          "type": "string"
        },
        {
          "indexed": false,
          "internalType": "uint256",
          "name": "price",
          "type": "uint256"
        },
        {
          "indexed": false,
          "internalType": "uint256",
          "name": "quantity",
          "type": "uint256"
        }
      ],
      "name": "ProductAdded",
      "type": "event"
    },
    {
      "inputs": [
        {
          "internalType": "string",
          "name": "_productId",
          "type": "string"
        },
        {
          "internalType": "string",
          "name": "_name",
          "type": "string"
        },
        {
          "internalType": "uint256",
          "name": "_price",
          "type": "uint256"
        },
        {
          "internalType": "uint256",
          "name": "_quantity",
          "type": "uint256"
        }
      ],
      "name": "addProduct",
      "outputs": [],
      "stateMutability": "nonpayable",
      "type": "function"
    },
    {
      "inputs": [],
      "name": "getProductCount",
      "outputs": [
        {
          "internalType": "uint256",
          "name": "",
          "type": "uint256"
        }
      ],
      "stateMutability": "view",
      "type": "function"
    },
    {
      "inputs": [
        {
          "internalType": "uint256",
          "name": "_index",
          "type": "uint256"
        }
      ],
      "name": "getProductIdAtIndex",
      "outputs": [
        {
          "internalType": "string",
          "name": "",
          "type": "string"
        }
      ],
      "stateMutability": "view",
      "type": "function"
    }
  ],
  "bytecode": "0x608060405234801561001057600080fd5b5061098c806100206000396000f3fe608060405234801561001057600080fd5b50600436106100415760003560e01c806301cecd14146100465780634a348da9146100625780635e33fad114610080575b600080fd5b610060600480360381019061005b91906104b6565b6100b0565b005b61006a61026f565b6040516100779190610737565b60405180910390f35b61009a60048036038101906100959190610549565b610279565b6040516100a79190610682565b60405180910390f35b6000846040516100c0919061066b565b908152602001604051809103902060040160009054906101000a900460ff161561011f576040517f08c379a0000000000000000000000000000000000000000000000000000000008152600401610116906106f7565b60405180910390fd5b6040518060a0016040528085815260200184815260200183815260200182815260200160011515815250600085604051610159919061066b565b90815260200160405180910390206000820151816000019080519060200190610183929190610396565b5060208201518160010190805190602001906101a0929190610396565b50604082015181600201556060820151816003015560808201518160040160006101000a81548160ff021916908315150217905550905050600160008154809291906101eb90610858565b919050555060028490806001815401808255809150506001900390600052602060002001600090919091909150908051906020019061022b929190610396565b507f39bba915b2df4a1f3d02bc3e26f87bdffc8a1b3bec45a16a7d13038155e191768484848460405161026194939291906106a4565b60405180910390a150505050565b6000600154905090565b606060028054905082106102c2576040517f08c379a00000000000000000000000000000000000000000000000000000000081526004016102b990610717565b60405180910390fd5b600282815481106102fc577f4e487b7100000000000000000000000000000000000000000000000000000000600052603260045260246000fd5b90600052602060002001805461031190610826565b80601f016020809104026020016040519081016040528092919081815260200182805461033d90610826565b801561038a5780601f1061035f5761010080835404028352916020019161038a565b820191906000526020600020905b81548152906001019060200180831161036d57829003601f168201915b50505050509050919050565b8280546103a290610826565b90600052602060002090601f0160209004810192826103c4576000855561040b565b82601f106103dd57805160ff191683800117855561040b565b8280016001018555821561040b579182015b8281111561040a5782518255916020019190600101906103ef565b5b509050610418919061041c565b5090565b5b8082111561043557600081600090555060010161041d565b5090565b600061044c61044784610783565b610752565b90508281526020810184848401111561046457600080fd5b61046f8482856107e4565b509392505050565b600082601f83011261048857600080fd5b8135610498848260208601610439565b91505092915050565b6000813590506104b08161093f565b92915050565b600080600080608085870312156104cc57600080fd5b600085013567ffffffffffffffff8111156104e657600080fd5b6104f287828801610477565b945050602085013567ffffffffffffffff81111561050f57600080fd5b61051b87828801610477565b935050604061052c878288016104a1565b925050606061053d878288016104a1565b91505092959194509250565b60006020828403121561055b57600080fd5b6000610569848285016104a1565b91505092915050565b600061057d826107b3565b61058781856107be565b93506105978185602086016107f3565b6105a08161092e565b840191505092915050565b60006105b6826107b3565b6105c081856107cf565b93506105d08185602086016107f3565b80840191505092915050565b60006105e96017836107be565b91507f50726f6475637420616c7265616479206578697374732e0000000000000000006000830152602082019050919050565b60006106296014836107be565b91507f496e646578206f7574206f6620626f756e64732e0000000000000000000000006000830152602082019050919050565b610665816107da565b82525050565b600061067782846105ab565b915081905092915050565b6000602082019050818103600083015261069c8184610572565b905092915050565b600060808201905081810360008301526106be8187610572565b905081810360208301526106d28186610572565b90506106e1604083018561065c565b6106ee606083018461065c565b95945050505050565b60006020820190508181036000830152610710816105dc565b9050919050565b600060208201905081810360008301526107308161061c565b9050919050565b600060208201905061074c600083018461065c565b92915050565b6000604051905081810181811067ffffffffffffffff82111715610779576107786108ff565b5b8060405250919050565b600067ffffffffffffffff82111561079e5761079d6108ff565b5b601f19601f8301169050602081019050919050565b600081519050919050565b600082825260208201905092915050565b600081905092915050565b6000819050919050565b82818337600083830152505050565b60005b838110156108115780820151818401526020810190506107f6565b83811115610820576000848401525b50505050565b6000600282049050600182168061083e57607f821691505b60208210811415610852576108516108d0565b5b50919050565b6000610863826107da565b91507fffffffffffffffffffffffffffffffffffffffffffffffffffffffffffffffff821415610896576108956108a1565b5b600182019050919050565b7f4e487b7100000000000000000000000000000000000000000000000000000000600052601160045260246000fd5b7f4e487b7100000000000000000000000000000000000000000000000000000000600052602260045260246000fd5b7f4e487b7100000000000000000000000000000000000000000000000000000000600052604160045260246000fd5b6000601f19601f8301169050919050565b610948816107da565b811461095357600080fd5b5056fea2646970667358221220a55166e3ecf35b81fc98a773f42e2a979d46cad477939feed3726f325b000a3064736f6c63430008000033",
  "immutableReferences": {},
  "source": "// SPDX-License-Identifier: MIT\r\npragma solidity ^0.8.0;\r\n\r\ncontract PharmaSupplyChain {\r\n    // Structure to hold product details\r\n    struct Product {\r\n        string productId;\r\n        string name;\r\n        uint price; // Price in Rs\r\n        uint quantity;\r\n        bool exists; // Flag to check if the product exists\r\n    }\r\n\r\n    // Mapping to store products by their IDs (using string)\r\n    mapping(string => Product) private products;\r\n\r\n    // Count of total products\r\n    uint private productCount;\r\n\r\n    // Array to store all product IDs\r\n    string[] private productIds;\r\n\r\n    // Event emitted when a product is added\r\n    event ProductAdded(\r\n        string productId,\r\n        string name,\r\n        uint price,\r\n        uint quantity\r\n    );\r\n\r\n    // Function for manufacturers to add a new product\r\n    function addProduct(\r\n        string memory _productId,\r\n        string memory _name,\r\n        uint _price,\r\n        uint _quantity\r\n    ) public {\r\n        require(!products[_productId].exists, \"Product already exists.\");\r\n\r\n        // Initialize the product\r\n        products[_productId] = Product({\r\n            productId: _productId,\r\n            name: _name,\r\n            price: _price,\r\n            quantity: _quantity,\r\n            exists: true\r\n        });\r\n\r\n        // Increment the product count\r\n        productCount++;\r\n\r\n        // Store the product ID\r\n        productIds.push(_productId);\r\n\r\n        emit ProductAdded(_productId, _name, _price, _quantity);\r\n    }\r\n\r\n    // Function to get the total product count\r\n    function getProductCount() public view returns (uint) {\r\n        return productCount;\r\n    }\r\n\r\n    // Function to get product ID at a specific index\r\n    function getProductIdAtIndex(\r\n        uint _index\r\n    ) public view returns (string memory) {\r\n        require(_index < productIds.length, \"Index out of bounds.\");\r\n        return productIds[_index];\r\n    }\r\n}\r\n",
  "sourcePath": "C:\\Users\\Akshad\\Desktop\\Pharma\\contracts\\PharmaSupplyChain.sol",
  "compiler": {
    "name": "solc",
    "version": "0.8.0+commit.c7dfd78e.Emscripten.clang"
  },
  "schemaVersion": "3.4.16",
  "updatedAt": "2024-10-06T15:28:37.135Z",
  "devdoc": {
    "kind": "dev",
    "methods": {},
    "version": 1
  },
  "userdoc": {
    "kind": "user",
    "methods": {},
    "version": 1
  }
}